:020000040800F2
:10000000B80F002081220008DD030008DF0300088C
:10001000E3030008E7030008EB030008000000000A
:10002000000000000000000000000000EF030008D6
:10003000F103000800000000F3030008F5030008C6
:100040009B2200089B2200089B2200089B2200089C
:100050009B2200089B2200089B2200089B2200088C
:100060009B2200089B2200084F1C00089B220008CE
:100070009B2200089B2200089B2200089B2200086C
:100080009B2200089B2200089B2200089B2200085C
:100090009B2200089B2200089B220008511C00089C
:1000A0009B2200089B2200089B2200089B2200083C
:1000B00061180008C51900089B2200089B2200084F
:1000C0009B2200089B2200089B2200089B2200081C
:1000D0009B220008BB210008DD480008E52100083C
:1000E000531C00089B2200089B2200089B2200084A
:1000F0009B2200089B2200089B2200089B220008EC
:100100009B2200089B2200089B2200089B220008DB
:100110009B2200089B2200089B2200089B220008CB
:100120009B2200089B2200089B2200089B220008BB
:1001300000F002F800F0B4F80AA090E8000C824445
:100140008344AAF10107DA4501D100F0A9F8AFF222
:10015000090EBAE80F0013F0010F18BFFB1A43F0A5
:100160000103184768BD000088BD00000A444FF035
:10017000000C10F8013B13F0070408BF10F8014B06
:100180001D1108BF10F8015B641E05D010F8016B4B
:10019000641E01F8016BF9D113F0080F1EBF10F8AF
:1001A000014BAD1C0C1B09D16D1E58BF01F801CBD2
:1001B000FAD505E014F8016B01F8016B6D1EF9D555
:1001C0009142D6D37047000000230024002500266A
:1001D000103A28BF78C1FBD8520728BF30C148BFAA
:1001E0000B6070476E2906F09181702906F0FF843C
:1001F000662907F07E87652907F07B87672907F066
:1002000078876129AFF3008003681B0A28BF41F09B
:100210008001692905F07686642905F073867529C1
:1002200005F070866F2906F08C84782906F0CB845F
:10023000E92906F02784E42906F02484F52906F04C
:100240002184EF2906F08984F82906F0CA8403681E
:10025000DB0928BF41F08001632906F0A8837329D8
:1002600006F0AD83E32906F0F185F32906F0F68563
:10027000002070471FB59DE8030006F07FF806F0E8
:1002800037FD04000020002107F08EFB401C606059
:100290000020002107F072FBE0601FBD10B510BD0B
:1002A00006F0C6FE1146FFF7E5FF00F03CF806F049
:1002B000F2FE03B4FFF7F2FF03BC06F063FF000099
:1002C00010B504F032FA03E04FF4FA7001F051FE79
:1002D00005F084FA0028F7D100F02CFB10BD10B512
:1002E00001F00AFE4FF4E13001F070FE4FF4E1300E
:1002F00001F0BFFE00F092FA00F01CFB01F0AAFB37
:100300004FF4A06002F060FD01F048FC01F059FAE2
:1003100001F0BEFB01F0D2FD00F08AF900F05CF9BB
:1003200000F0B2F910BD1CB54FF0000A002001909A
:10033000FFF7D5FFFFF7C4FF46E00198401C80B2ED
:100340000190C82803DA21480078012832D12049D9
:10035000481E01F00AFA0A21092001F001FC009070
:1003600007F082FD834607F065FC06464FF06632D3
:10037000184B07F061FB04460022174B07F05CFBAB
:10038000804607F027FB1249491E486001F09FFD97
:10039000044607F049FD0E49491E887005F046FBEA
:1003A000002001900949087004F042F901F063FA55
:1003B00000F083F9002004F096F98246BAF1000FAC
:1003C00002D0504605F063FBB7E7000000000020B4
:1003D0009908002066664A3F00002440704700BF2D
:1003E000FEE700BFFEE700BFFEE700BFFEE7704785
:1003F00070477047704700000CB5002001900090D6
:100400006C48006840F480306A49086000BF694861
:10041000006800F4003000900198401C01900098A2
:1004200018B90198B0F5A06FF1D16248006800F4E6
:10043000003010B10120009001E0002000900098F1
:10044000012843D15C48006840F010005A49086018
:100450000846006820F0030008600846006840F085
:1004600002000860534840685249486008464068A6
:1004700048600846406840F480604860084640682C
:1004800020F47C1048600846406840F4E81048605A
:100490000846006840F08070086000BF454800686A
:1004A00000F000700028F9D04248406820F00300B6
:1004B000404948600846406840F00200486000BF7C
:1004C0003C48406800F00C000828F9D10CBD10B57C
:1004D000FFF792FF10BD10B53648006840F00100EC
:1004E000344908600846406834490840314948604A
:1004F00008460068324908402E49086008460068EE
:1005000020F4802008600846406820F4FE0048601F
:100510004FF41F008860FFF7DAFF4FF000602949B1
:10052000086010BD10B5002100200022214B5B683F
:1005300003F00C0121B1042906D0082928D107E0D5
:10054000214B224C236027E01F4B204C236023E0EB
:10055000184B5B6803F47010164B5B6803F4803231
:10056000022303EB904022B9194B4343174C2360FD
:100570000DE0104B5B6803F4003323B1144B43438D
:10058000124C236003E0104B4343104C236003E004
:100590000D4B0E4C236000BF00BF064B5B68C3F3DE
:1005A00003130C4CE15C094B1B68CB40074C2360E8
:1005B00010BD000000100240002002400000FFF8C3
:1005C000FFFFF6FE08ED00E000127A0004000020B4
:1005D00000093D000800002008B50121082002F0B4
:1005E0008BF94FF40070ADF8000010208DF8030077
:1005F00003208DF802006946424801F0C1FE4FF425
:100600000071404801F06BFF08BD10B53E48407ACC
:10061000012804D141023B4801F05FFF07E03A485E
:10062000407A20B94FF40071364801F058FF10BDF0
:1006300008B50121082002F05FF94FF40050ADF831
:10064000000010208DF8030003208DF80200694699
:100650002C4801F095FE4FF400512A4801F03DFF6F
:1006600008BD10B52848007A012804D14103254867
:1006700001F035FF07E02448007A20B94FF400511B
:10068000204801F02AFF10BD08B50121102002F01A
:1006900033F94FF40050ADF8000010208DF803003E
:1006A00003208DF802006946184801F069FE4FF4F6
:1006B0000051164801F011FF08BD10B5124800782E
:1006C000232809DC10484078462805DC0E49486894
:1006D0000F4907F0DDFC10D201200B49887241035D
:1006E0000A4801F0FCFE4FF4C87001F042FC4FF4E0
:1006F0000051064801F0F1FE02E000200249887234
:1007000010BD0000000C01409808002000100140BE
:100710000000A04100B585B00121480502F0F9F8BC
:100720000121082002F0E8F8C020ADF80000032005
:100730008DF802001C208DF803006946F74801F08F
:100740001FFEF74802F0AEFB0020ADF808004BF6A4
:10075000FF70ADF80A003020ADF80C004FF4806057
:10076000ADF80E000001ADF81000EE480190012137
:10077000EB4802F02EFC01A9E94802F0ACFB05B001
:1007800000BD70B504460D4600BF4FF40031E4488B
:1007900002F046FD0028F8D10121E14802F03DFCBD
:1007A00000BFE149DE4802F019FD0028F9D000221F
:1007B0007821DB4802F087FC00BFDC49D84802F012
:1007C0000DFD0028F9D02146D54802F076FC00BF87
:1007D000D649891CD24802F001FD0028F8D02946EC
:1007E000CF4802F06AFC00BFD049891CCC4802F017
:1007F000F5FC0028F8D00121C94802F01AFC70BDB0
:1008000010B5044621460020FFF7BBFF10BD10B510
:10081000044621464020FFF7B4FF10BD10B5FFF796
:1008200079FF642001F0A5FBAE20FFF7E9FF20204F
:10083000FFF7E6FF1020FFF7E3FFB020FFF7E0FF30
:10084000C820FFF7DDFF0020FFF7DAFF1020FFF7D9
:10085000D7FF4020FFF7D4FF8120FFF7D1FFFF2013
:10086000FFF7CEFFA120FFF7CBFFA620FFF7C8FFC1
:10087000A820FFF7C5FF3F20FFF7C2FFA420FFF726
:10088000BFFFD320FFF7BCFF0020FFF7B9FFD52043
:10089000FFF7B6FFF020FFF7B3FFD920FFF7B0FF57
:1008A0002220FFF7ADFFDA20FFF7AAFF1220FFF7A3
:1008B000A7FFDB20FFF7A4FF2020FFF7A1FF8D207B
:1008C000FFF79EFF1420FFF79BFFAF20FFF798FF75
:1008D00010BD70B504460D4605F1B001C8B2FFF772
:1008E0008FFF102141EA1410FFF78AFF04F00F0177
:1008F00041F00100FFF784FF70BD70B5064600248B
:1009000015E004F1B001C8B2FFF77AFF0020FFF74D
:1009100077FF1020FFF774FF002504E03046FFF753
:1009200076FF681CC5B2802DF8DB601CC4B2082CB1
:10093000E7DB70BD10B50020FFF7DFFF10BD10B57D
:100940008D20FFF75DFF1420FFF75AFFAF20FFF760
:1009500057FF10BD10B58D20FFF752FF1020FFF795
:100960004FFFAE20FFF74CFF10BD2DE9F0470646C4
:10097000894617469A464FF0000800240025BAF130
:10098000010F03D0BAF1020F5ED125E020E0785DBF
:10099000203800F0FF087E2E04DD002609F101005A
:1009A00000F0FF0949463046FFF793FF002409E0B5
:1009B00008EB48015E4A02EB4101085DFFF727FFA3
:1009C000601CC4B2062CF3DBB01DC6B2681CC5B2F5
:1009D000785D0028DBD137E032E0785D203800F028
:1009E000FF08782E04DD002609F1010000F0FF0960
:1009F00049463046FFF76DFF002407E004EB08117D
:100A00004C4A505CFFF703FF601CC4B2082CF5DBB6
:100A100009F10100C1B23046FFF75BFF002408E096
:100A200004EB08110831434A505CFFF7F0FE601CEC
:100A3000C4B2082CF4DB06F10800C6B2681CC5B2CB
:100A4000785D0028C9D100BF00BFBDE8F0872DE95F
:100A5000F04180460E46174600247D01314640464F
:100A6000FFF737FF00BF06E03349485DFFF7CFFED1
:100A70006D1C601CC4B2102CF6DB701CC1B2404669
:100A8000FFF727FF002406E02B49485DFFF7BFFE74
:100A90006D1C601CC4B2102CF6DBBDE8F0812DE9A2
:100AA000F05F06460F4690461C46DDF828A04FF042
:100AB000000BE11704EB5171C910A4EBC10131B96E
:100AC0002046E11704EB5171C1F3C70506E020464B
:100AD000E11704EB5171C910491CCDB23D4614E039
:100AE00029463046FFF7F5FEB1460AE059460BF1BC
:100AF000010B1AF80100FFF78AFE09F1010000F06E
:100B0000FF09C145F2DB681CC5B2A542E8DBBDE8C0
:100B1000F09F10B50246012011E00000000C0140DA
:100B200000540040801A0600010003008200070004
:100B3000F68000081E8300081800002050430B1E9A
:100B4000A1F10104E1B2F9D110BD2DE9F041054652
:100B500088460027B8F1330F80F05285DFE818F09F
:100B600033004B0063007B009300AB00C300DB004D
:100B7000F3000B0123013B0153016B0183019B0136
:100B8000B301CB01E301FB01130256026E028602A0
:100B90009E02B602CE02E602FE0216032E034603B2
:100BA0005E0376038E03A603BE03D603EE0306049C
:100BB0001E0436044E049004A804C004D804F004B3
:100BC0000805200538052C4611E021460020FFF7D6
:100BD00080FE002607E039467F1CF74A505CFFF78D
:100BE00016FE701CC6B2802EF5DB601CC4B2601B02
:100BF0000228EADB39E22C4611E021460020FFF70B
:100C000068FE002607E039467F1CEC4A505CFFF77F
:100C1000FEFD701CC6B2802EF5DB601CC4B2601BEA
:100C20000228EADBE6E72C4611E021460020FFF728
:100C300050FE002607E039467F1CE14A505CFFF772
:100C4000E6FD701CC6B2802EF5DB601CC4B2601BD2
:100C50000228EADBCEE72C4611E021460020FFF710
:100C600038FE002607E039467F1CD64A505CFFF765
:100C7000CEFD701CC6B2802EF5DB601CC4B2601BBA
:100C80000228EADBB6E72C4611E021460020FFF7F8
:100C900020FE002607E039467F1CCB4A505CFFF758
:100CA000B6FD701CC6B2802EF5DB601CC4B2601BA2
:100CB0000228EADB9EE72C4611E021460020FFF7E0
:100CC00008FE002607E039467F1CC04A505CFFF74B
:100CD0009EFD701CC6B2802EF5DB601CC4B2601B8A
:100CE0000228EADB86E72C4611E021460020FFF7C8
:100CF000F0FD002607E039467F1CB54A505CFFF73F
:100D000086FD701CC6B2802EF5DB601CC4B2601B71
:100D10000228EADB6EE72C4611E021460020FFF7AF
:100D2000D8FD002607E039467F1CAA4A505CFFF731
:100D30006EFD701CC6B2802EF5DB601CC4B2601B59
:100D40000228EADB56E72C4611E021460020FFF797
:100D5000C0FD002607E039467F1C9F4A505CFFF724
:100D600056FD701CC6B2802EF5DB601CC4B2601B41
:100D70000228EADB3EE72C4611E021460020FFF77F
:100D8000A8FD002607E039467F1C944A505CFFF717
:100D90003EFD701CC6B2802EF5DB601CC4B2601B29
:100DA0000228EADB26E72C4611E021460020FFF767
:100DB00090FD002607E039467F1C894A505CFFF70A
:100DC00026FD701CC6B2802EF5DB601CC4B2601B11
:100DD0000228EADB0EE72C4611E021460020FFF74F
:100DE00078FD002607E039467F1C7E4A505CFFF7FD
:100DF0000EFD701CC6B2802EF5DB601CC4B2601BF9
:100E00000228EADBFCE32C4611E021460020FFF734
:100E100060FD002607E039467F1C734A505CFFF7EF
:100E2000F6FC701CC6B2802EF5DB601CC4B2601BE1
:100E30000228EADBE4E32C4611E021460020FFF71C
:100E400048FD002607E039467F1C684A505CFFF7E2
:100E5000DEFC701CC6B2802EF5DB601CC4B2601BC9
:100E60000228EADBCCE32C4611E021460020FFF704
:100E700030FD002607E039467F1C5D4A505CFFF7D5
:100E8000C6FC701CC6B2802EF5DB601CC4B2601BB1
:100E90000228EADBB4E32C4611E021460020FFF7EC
:100EA00018FD002607E039467F1C524A505CFFF7C8
:100EB000AEFC701CC6B2802EF5DB601CC4B2601B99
:100EC0000228EADB9CE32C4611E021460020FFF7D4
:100ED00000FD002607E039467F1C474A505CFFF7BB
:100EE00096FC701CC6B2802EF5DB601CC4B2601B81
:100EF0000228EADB84E32C4611E021460020FFF7BC
:100F0000E8FC002607E039467F1C3C4A505CFFF7AE
:100F10007EFC701CC6B2802EF5DB601CC4B2601B68
:100F20000228EADB6CE32C4611E021460020FFF7A3
:100F3000D0FC002607E039467F1C314A505CFFF7A1
:100F400066FC701CC6B2802EF5DB601CC4B2601B50
:100F50000228EADB54E32C4611E021460020FFF78B
:100F6000B8FC002607E039467F1C264A505CFFF794
:100F70004EFC701CC6B2802EF5DB601CC4B2601B38
:100F80000228EADB3CE32C4611E021460020FFF773
:100F9000A0FC002607E039467F1C1B4A505CFFF787
:100FA00036FC701CC6B2802EF5DB601CC4B2601B20
:100FB0000228EADB24E300000E8900080E8A0008FC
:100FC0000E8B00080E8C00080E8D00080E8E000897
:100FD0000E8F00080E9000080E9100080E92000877
:100FE0000E9300080E9400080E9500080E96000857
:100FF0000E9700080E9800080E9900080E9A000837
:101000000E9B00080E9C00080E9D00082C4611E067
:1010100021460020FFF75DFC002607E039467F1CD3
:10102000F74A505CFFF7F3FB701CC6B2802EF5DB6D
:10103000601CC4B2601B0228EADBE1E22C4611E02E
:1010400021460020FFF745FC002607E039467F1CBB
:10105000EC4A505CFFF7DBFB701CC6B2802EF5DB60
:10106000601CC4B2601B0228EADBC9E22C4611E016
:1010700021460020FFF72DFC002607E039467F1CA3
:10108000E14A505CFFF7C3FB701CC6B2802EF5DB53
:10109000601CC4B2601B0228EADBB1E22C4611E0FE
:1010A00021460020FFF715FC002607E039467F1C8B
:1010B000D64A505CFFF7ABFB701CC6B2802EF5DB46
:1010C000601CC4B2601B0228EADB99E22C4611E0E6
:1010D00021460020FFF7FDFB002607E039467F1C74
:1010E000CB4A505CFFF793FB701CC6B2802EF5DB39
:1010F000601CC4B2601B0228EADB81E22C4611E0CE
:1011000021460020FFF7E5FB002607E039467F1C5B
:10111000C04A505CFFF77BFB701CC6B2802EF5DB2B
:10112000601CC4B2601B0228EADB69E22C4611E0B5
:1011300021460020FFF7CDFB002607E039467F1C43
:10114000B54A505CFFF763FB701CC6B2802EF5DB1E
:10115000601CC4B2601B0228EADB51E22C4611E09D
:1011600021460020FFF7B5FB002607E039467F1C2B
:10117000AA4A505CFFF74BFB701CC6B2802EF5DB11
:10118000601CC4B2601B0228EADB39E22C4611E085
:1011900021460020FFF79DFB002607E039467F1C13
:1011A0009F4A505CFFF733FB701CC6B2802EF5DB04
:1011B000601CC4B2601B0228EADB21E22C4611E06D
:1011C00021460020FFF785FB002607E039467F1CFB
:1011D000944A505CFFF71BFB701CC6B2802EF5DBF7
:1011E000601CC4B2601B0228EADB09E22C4611E055
:1011F00021460020FFF76DFB002607E039467F1CE3
:10120000894A505CFFF703FB701CC6B2802EF5DBE9
:10121000601CC4B2601B0228EADBF1E12C4611E03D
:1012200021460020FFF755FB002607E039467F1CCA
:101230007E4A505CFFF7EBFA701CC6B2802EF5DBDD
:10124000601CC4B2601B0228EADBD9E12C4611E025
:1012500021460020FFF73DFB002607E039467F1CB2
:10126000734A505CFFF7D3FA701CC6B2802EF5DBD0
:10127000601CC4B2601B0228EADBC1E12C4611E00D
:1012800021460020FFF725FB002607E039467F1C9A
:10129000684A505CFFF7BBFA701CC6B2802EF5DBC3
:1012A000601CC4B2601B0228EADBA9E12C4611E0F5
:1012B00021460020FFF70DFB002607E039467F1C82
:1012C0005D4A505CFFF7A3FA701CC6B2802EF5DBB6
:1012D000601CC4B2601B0228EADB91E12C4611E0DD
:1012E00021460020FFF7F5FA002607E039467F1C6B
:1012F000524A505CFFF78BFA701CC6B2802EF5DBA9
:10130000601CC4B2601B0228EADB79E12C4611E0C4
:1013100021460020FFF7DDFA002607E039467F1C52
:10132000474A505CFFF773FA701CC6B2802EF5DB9B
:10133000601CC4B2601B0228EADB61E12C4611E0AC
:1013400021460020FFF7C5FA002607E039467F1C3A
:101350003C4A505CFFF75BFA701CC6B2802EF5DB8E
:10136000601CC4B2601B0228EADB49E12C4611E094
:1013700021460020FFF7ADFA002607E039467F1C22
:10138000314A505CFFF743FA701CC6B2802EF5DB81
:10139000601CC4B2601B0228EADB31E12C4611E07C
:1013A00021460020FFF795FA002607E039467F1C0A
:1013B000264A505CFFF72BFA701CC6B2802EF5DB74
:1013C000601CC4B2601B0228EADB19E12C4611E064
:1013D00021460020FFF77DFA002607E039467F1CF2
:1013E0001B4A505CFFF713FA701CC6B2802EF5DB67
:1013F000601CC4B2601B0228EADB01E12C463BE022
:101400000E9E00080E9F00080EA000080EA1000806
:101410000EA200080EA300080EA400080EA50008E6
:101420000EA600080EA700080EA800080EA90008C6
:101430000EAA00080EAB00080EAC00080EAD0008A6
:101440000EAE00080EAF00080EB000080EB1000886
:101450000EB2000821460020FFF73BFA002607E005
:1014600039467F1C764A505CFFF7D1F9701CC6B232
:10147000802EF5DB601CC4B2601B0228EADBBFE0F3
:101480002C4611E021460020FFF723FA002607E052
:1014900039467F1C6B4A505CFFF7B9F9701CC6B225
:1014A000802EF5DB601CC4B2601B0228EADBA7E0DB
:1014B0002C4611E021460020FFF70BFA002607E03A
:1014C00039467F1C604A505CFFF7A1F9701CC6B218
:1014D000802EF5DB601CC4B2601B0228EADB8FE0C3
:1014E0002C4611E021460020FFF7F3F9002607E023
:1014F00039467F1C554A505CFFF789F9701CC6B20B
:10150000802EF5DB601CC4B2601B0228EADB77E0AA
:101510002C4611E021460020FFF7DBF9002607E00A
:1015200039467F1C4A4A505CFFF771F9701CC6B2FD
:10153000802EF5DB601CC4B2601B0228EADB5FE092
:101540002C4611E021460020FFF7C3F9002607E0F2
:1015500039467F1C3F4A505CFFF759F9701CC6B2F0
:10156000802EF5DB601CC4B2601B0228EADB47E07A
:101570002C4611E021460020FFF7ABF9002607E0DA
:1015800039467F1C344A505CFFF741F9701CC6B2E3
:10159000802EF5DB601CC4B2601B0228EADB2FE062
:1015A0002C4611E021460020FFF793F9002607E0C2
:1015B00039467F1C294A505CFFF729F9701CC6B2D6
:1015C000802EF5DB601CC4B2601B0228EADB17E04A
:1015D0002C4611E021460020FFF77BF9002607E0AA
:1015E00039467F1C1E4A505CFFF711F9701CC6B2C9
:1015F000802EF5DB601CC4B2601B0228EADB00BF52
:1016000000BFBDE8F08110B5142200210846FFF7A5
:101610001EFA152200212020FFF719FA16220021B8
:101620004020FFF714FA172200216020FFF70FFA7D
:1016300002230CA219460020FFF797F910BD000005
:101640000EB300080EB400080EB500080EB6000870
:101650000EB700080EB800080EB900080EBA000850
:101660000EBB0008746573740000000010B562487A
:10167000006820F00F00604908600846006840F0EC
:101680000300086000205D490860142000F071FC30
:1016900001205B49C1F880011E2000F046FC10BD0E
:1016A00010B500245448006820F00F00524908602B
:1016B0000846006840F00800086004E0601CC4B2FE
:1016C000012000F032FC4D488038006808B1642CDD
:1016D000F4DB642C01DB012010BD002404E0601C5D
:1016E000C4B2012000F021FC44488038006808B9E9
:1016F000642CF4DB642C01DB0120EDE70020EBE738
:1017000010B5002404E0601CC4B2012000F00DFC00
:101710003A488038006808B1642CF4DB002404E007
:10172000601CC4B2012000F000FC3448803800681E
:1017300008B9642CF4DB282000F0F7FB2F48803830
:10174000006808B1012010BD0020FCE770B500243E
:10175000002506E06006040EFFF7D2FF0443681C74
:10176000C5B2082DF6DB204670BD7CB505460E4699
:10177000FFF77CFFFFF794FFF8B9002405E0FFF7BF
:10178000E5FF0DF80400601CC4B2052CF7DB9DF8E2
:1017900000009DF8011008449DF8021008449DF8CF
:1017A000031008449DF80410884208D19DF80000F9
:1017B00030709DF80200287001E001207CBD0020FF
:1017C000FCE708B50121042001F096F80120ADF8EE
:1017D000000010208DF8030003208DF802006946F8
:1017E000054800F0CDFD0121034800F076FEFFF72B
:1017F0003DFFFFF755FF08BD000801408001214271
:10180000000021427FB505460C460121084601F043
:1018100080F8ADF80850ADF804400020ADF80A009B
:10182000ADF8060001A94FF0804002F0C7F8012290
:101830001146900702F039FC1C208DF800000220B0
:101840008DF8010003208DF8020001208DF80300BF
:10185000684601F0BEFA0121880702F00BFC7FBD4B
:1018600010B50121880702F0CEFE18B101218807CA
:1018700002F0DAFE10BD70B5002408E0E2B21021DB
:1018800001EB0411C8B20021FFF7E1F8641C062C3B
:10189000F4DB5248027852A1544804F0F3FA0123D1
:1018A000524A02210020FFF760F84C48427850A1CC
:1018B0004E4804F0E7FA01234C4A03210020FFF7C9
:1018C00054F84649486806F0B5F905462A460B46DD
:1018D0004AA1464804F0D6FA0123444A04210020D4
:1018E000FFF743F83D48827847A1404804F0CAFA20
:1018F00001233E4A05210020FFF737F83748007AD8
:1019000020B145A1394804F0BDFA03E044A13748AD
:1019100004F0B8FA0123354A06210020FFF725F824
:101920002E48407A20B140A1304804F0ABFA03E0E1
:101930003FA12E4804F0A6FA01232C4A06213220AA
:10194000FFF713F82548807A20B13BA1274804F01F
:1019500099FA03E03BA1254804F094FA0123234AB5
:1019600007210020FFF701F870BD7FB505460C4642
:101970000121022000F0CDFFADF80850ADF8044081
:101980000020ADF80A00ADF8060001A9304802F0C9
:1019900015F8012211462E4802F087FB1D208DF814
:1019A000000002208DF8010003208DF802000120C4
:1019B0008DF80300684601F00CFA0121244802F07A
:1019C00059FB7FBD10B50121214802F01CFE18B162
:1019D00001211F4802F028FE10BD000098080020D9
:1019E00054656D703A25642043000000A40800206F
:1019F00048756D693A25642525000000434F323A49
:101A0000252E3266000000004C696768743A256430
:101A1000206C75780000000046616E3A4F4E200041
:101A200046616E3A4F4646004C65643A4F4E200080
:101A30004C65643A4F4646005741524E494E473A2C
:101A40004F4E20005741524E494E473A4F464600AE
:101A50000004004008B50121042000F04DFF4FF4C0
:101A60008060ADF8000048208DF803006946074803
:101A700000F086FC4FF40060ADF8000048208DF8BF
:101A800003006946014800F07BFC08BD00080140E6
:101A900000B587B001214FF4017000F02DFF012146
:101AA000082000F029FF4FF4004000F089FE0220DA
:101AB000ADF8040000208DF8070001A9344800F0BB
:101AC0005FFC0220ADF8040000208DF8070001A99A
:101AD000304800F055FC304801F0E6FB0020029051
:101AE0008DF80C0001208DF80D004FF4602004905B
:101AF0000020059001208DF8180002A9264801F069
:101B0000FAFB0121244801F022FC234801F041FCAA
:101B100000BF214801F042FC0028FAD11E4801F024
:101B200047FC00BF1C4801F048FC0028FAD107B070
:101B300000BD10B50446072301222146164801F0D6
:101B400072FC0121144801F042FC00BF022112483E
:101B500001F0AEFD0028F9D00F4801F0CBFC10BD1C
:101B60002DE9F04107460C460025002608E03846DE
:101B7000FFF7DFFF0544052000F0FBF9701CC6B23B
:101B8000A642F4DBB5FBF4F080B2BDE8F0810000C2
:101B900000080140000C0140002401400EB5012165
:101BA000084600F0A9FEFFF755FF0A21002000F0CB
:101BB000FDFC4FF48060019000208DF808000C209F
:101BC0008DF8090001208DF80A0001A801F0A2FD9E
:101BD0000B21002000F0EAFC4FF40060019000208F
:101BE0008DF808000C208DF8090001208DF80A00FE
:101BF00001A801F08FFD0A208DF8000002208DF869
:101C000001008DF8020001208DF80300684601F004
:101C1000E0F817208DF8000002208DF80100012067
:101C20008DF802008DF80300684601F0D2F82820F4
:101C30008DF8000002208DF8010000208DF80200D0
:101C400001208DF80300684601F0C3F80EBD70470F
:101C500070477047002001E0411CC8B20A28FBDB36
:101C6000704710B54FF40060A1490860401008604B
:101C7000FFF7F0FF4FF400609D49091D0860FFF772
:101C8000E9FF4FF480609A49091D0860FFF7E2FF01
:101C900010BD10B54FF400609549091D0860401053
:101CA000091F0860FFF7D6FF4FF4006090490860F5
:101CB00010BD70B50446002524E004F0800020B17A
:101CC0004FF400608A49086004E04FF400608849DE
:101CD000091D0860FFF7BEFF4FF48060844908606B
:101CE000FFF7B8FF4FF480608149091D0860072D98
:101CF00002D14000091F08606006040EFFF7AAFF2A
:101D0000681CC5B2082DD8DB70BD70B50024002555
:101D100018E06006040E4FF4806075490860FFF714
:101D200099FF73480838006800F4006008B1601C2F
:101D3000C4B24FF480606E49091D0860FFF78AFF46
:101D4000681CC5B2082DE4DB204670BD10B54FF409
:101D5000006067490860FFF77DFF4FF480606449C9
:101D60000860FFF777FF62480838006800F40060F9
:101D700008B1012400E000244FF480605C49091D93
:101D80000860FFF767FF204610BD10B54FF40060F4
:101D90005749091D0860FFF75DFF4FF48060544903
:101DA0000860FFF757FF4FF480605149091D086034
:101DB000FFF750FF4FF400604D49086010BD10B5AB
:101DC0004FF400604A490860FFF744FF4FF4806019
:101DD00047490860FFF73EFF4FF480604449091D02
:101DE0000860FFF737FF10BD08B50121082000F09B
:101DF00083FD4FF44060ADF8000003208DF8020031
:101E000014208DF8030069463948103800F0B8FAFC
:101E1000FFF73FFF08BD70B50446FFF722FF2046DD
:101E2000FFF747FFFFF792FF0546FFF732FF28460F
:101E300070BD10B50446FFF714FF4620FFF739FFC9
:101E4000FFF784FF012800D110BD2046FFF731FFC6
:101E5000FFF77CFF012801D10220F5E7FFF719FF0A
:101E60000020F1E710B50024FFF7FBFE4720FFF745
:101E700020FFFFF76BFF012801D1002010BDFFF705
:101E800044FF0446FFF781FFFFF73FFF00EB04200C
:101E900084B2FFF794FFFFF7FCFE2046EEE710B593
:101EA0000120FFF7C6FF10BD10B50020FFF7C1FFEE
:101EB00010BD10B50720FFF7BCFF10BD10B5FFF730
:101EC00093FFFFF7ECFF1020FFF7B3FF10BD70B5D5
:101ED000FFF7C8FF064605F0C7FF0546054905F0B0
:101EE000E1FE04464FF07E5106F006F870BD00009A
:101EF000100C0140CDCC8C3F10B56FF0040000F009
:101F0000B2FF2E4800682E49B0FBF1F02D49087051
:101F10000846007800EB4001C1EBC0104FF6FF719E
:101F200001EAC0002849088010BD0146254A127800
:101F30004A434FF0E0235A6100229A611A4612691F
:101F400042F001021A6100BF4FF0E022106900F078
:101F500001021AB100F48032002AF5D04FF0E022DD
:101F6000126922F001024FF0E0231A6100229A6107
:101F700070470146144A12884A434FF0E0235A61E1
:101F800000229A611A46126942F001021A6100BFEA
:101F90004FF0E022106900F001021AB100F4803223
:101FA000002AF5D04FF0E022126922F001024FF032
:101FB000E0231A6100229A617047000004000020AB
:101FC00000127A00780800207A08002010B586B048
:101FD00004460121042000F08FFC0121880300F059
:101FE0008BFC18208DF817004FF40070ADF814002A
:101FF00003208DF8160005A99C4800F0C1F90420C3
:102000008DF817000002ADF8140003208DF81600BB
:1020100005A9964800F0B4F901940020ADF810002D
:102020000C20ADF80E000020ADF80C00ADF80A0051
:10203000ADF8080001A98E4800F005FD01218C488B
:1020400000F08DFD012240F22551894800F093FDFA
:1020500025208DF8000001208DF8030000208DF868
:10206000010002208DF80200684600F0B2FE06B0C2
:1020700010BD10B586B004460121042000F03CFCE0
:102080000121480400F045FC18208DF817000420B9
:10209000ADF8140003208DF8160005A9734800F070
:1020A0006FF904208DF817000820ADF81400032004
:1020B0008DF8160005A96D4800F062F90194002022
:1020C000ADF810000C20ADF80E000020ADF80C00AB
:1020D000ADF80A00ADF8080001A9664800F0B3FCAD
:1020E0000121644800F03BFD012240F22551614886
:1020F00000F041FD26208DF8000001208DF803003E
:1021000000208DF801008DF80200684600F061FEA5
:1021100006B010BD10B586B004460121082000F0BD
:10212000EBFB0121880400F0F4FB18208DF8170068
:102130004FF48060ADF8140003208DF8160005A957
:102140004D4800F01DF904208DF817004002ADF84D
:10215000140003208DF8160005A9474800F010F977
:1021600001940020ADF810000C20ADF80E00002006
:10217000ADF80C00ADF80A00ADF8080001A93F4821
:1021800000F061FC01213D4800F0E9FC012240F231
:1021900025513A4800F0EFFC27208DF8000001207F
:1021A0008DF8030000208DF8010001208DF8020059
:1021B000684600F00EFE06B010BD10B540F2255185
:1021C0002B4800F0BDFD18B12021294800F0AFFDDB
:1021D0000821274800F09EFD18B10821244800F08E
:1021E000A6FD10BD10B540F22551244800F0A8FD11
:1021F00010BD2DE9F04107460C46154600260DE0BE
:1022000014F8011B384600F017FD00BF4021384686
:1022100000F080FD0028F9D0701C86B2AE42EFDBE2
:10222000BDE8F0810FB430B5CBB0054601AC50A885
:1022300000904FF4947101A8009B4F9A03F008FEA0
:10224000002000900BE014F8011B284600F0F4FC7D
:1022500000BF4021284600F05DFD0028F9D020781D
:102260000028F0D14BB030BC5DF814FB00080140F1
:102270000038014000440040000C0140004800408C
:102280000948804709480047FEE7FEE7FEE7FEE70A
:10229000FEE7FEE7FEE7FEE7FEE7FEE70448054946
:1022A000054A064B70470000D704000831010008BA
:1022B000B8090020B80F0020B80B0020B80B002090
:1022C00010B50446CC48844208D10121042000F016
:1022D0002DFB0021042000F029FB46E0C748844282
:1022E00008D10121082000F021FB0021082000F086
:1022F0001DFB3AE0C248844208D10121102000F0C1
:1023000015FB0021102000F011FB2EE0BD48844297
:1023100008D10121202000F009FB0021202000F03D
:1023200005FB22E0B848844208D10121402000F09A
:10233000FDFA0021402000F0F9FA16E0B34884428B
:1023400008D10121802000F0F1FA0021802000F066
:10235000EDFA0AE0AE48844207D10121801500F071
:10236000E5FA0021A01500F0E1FA10BD10B5012139
:10237000084600F0DBFA0021012000F0D7FA10BD7A
:102380002DE9F0410246002500260020002300240C
:10239000002791F803C00CF00F0591F803C00CF072
:1023A000100CBCF1000F03D091F802C04CEA0505F7
:1023B00091F800C0BCF1000F31D0146800202BE070
:1023C0004FF0010C0CFA00F3B1F800C00CEA030660
:1023D0009E4220D183004FF00F0C0CFA03F7BC4350
:1023E00005FA03FC4CEA040491F803C0BCF1280F81
:1023F00006D14FF0010C0CFA00FCC2F814C00AE040
:1024000091F803C0BCF1480F05D14FF0010C0CFA54
:1024100000FCC2F810C0401C0828D1D31460B1F8E9
:1024200000C0BCF1FF0F34DD546800202EE000F145
:10243000080C4FF0010808FA0CF3B1F800C00CEAE0
:1024400003069E4221D183004FF00F0C0CFA03F7D4
:10245000BC4305FA03FC4CEA040491F803C0BCF148
:10246000280F05D100F1080C08FA0CF8C2F8148006
:1024700091F803C0BCF1480F07D100F1080C4FF0F0
:10248000010808FA0CF8C2F81080401C0828CED3C6
:102490005460BDE8F0814FF6FF7101800221817028
:1024A0000421C17070470246002093680B400BB1B5
:1024B000012000E0002070470146886880B2704724
:1024C00002460020D3680B400BB1012000E0002041
:1024D00070470146C86880B270470161704741612A
:1024E00070470AB1016100E041617047C160704707
:1024F0004FF480320A43826181618261826982691C
:10250000704702460020434B18684FF6807318400E
:1025100040EA021008433F4B186070473E49C861CB
:102520007047F0B50A46002300240021002500F082
:102530000046B6F1004F02D1364EF16901E0354E4A
:102540007168C0F3034583B200F44016B6F5401F2E
:1025500008D121F070612F4E766826F070662D4FFD
:102560007E6012E000F48016B6F5801F06D10326C7
:1025700006FA05F4A14341F0706106E0460D36010C
:1025800003FA06F6B14341F0706122B1460D3601FF
:1025900003FA06F6314300F00046B6F1004F02D1CF
:1025A0001C4EF16101E01B4E7160F0BD30B50022A0
:1025B0008B071C0F0F2303FA04F2164B08338C1001
:1025C00053F824309343134C08348D1044F82530CD
:1025D00023468C1053F824308C07240F00FA04F49F
:1025E00023430C4C08348D1044F8253030BD0A4983
:1025F000DC3108607047000000080140000C014019
:10260000001001400014014000180140001C01406E
:10261000002001400000014000002042DF48006827
:1026200040F00100DD49086008464068DC49084088
:10263000DA49486008460068DA490840D749086026
:102640000846006820F4802008600846406820F4AE
:10265000FE0048604FF41F0088607047CF4909684A
:1026600021F48031CD4A11601146096821F480219E
:102670001160B0F5803F03D0B0F5802F0ED106E099
:10268000C649096841F48031C44A116007E0C34972
:10269000096841F4A021C14A116000E000BF00BFF9
:1026A000704710B501460022002300204A11012A7C
:1026B00002D1BA4C236806E0022A02D1B74C236A41
:1026C00001E0B64C636A01F01F02012494401C40F3
:1026D0000CB1012000E0002010BD38B500200090B2
:1026E0000024002500BF3120FFF7DBFF05460098DE
:1026F000401C00900098B0F5A06F01D0002DF2D0E2
:102700003120FFF7CEFF08B1012400E0002420466D
:1027100038BD01460020A14A106820F0F80040EAC8
:10272000C10010607047A049086070470246002051
:102730009A4B586820F47C1042EA01031843974BE7
:102740005860704798490866704701460020934AD0
:10275000506820F003000843506070478F4840687D
:1027600000F00C007047014600208C4A506820F0B1
:10277000F00008435060704701460020874A5068C7
:1027800020F4E06008435060704701460020834A0F
:10279000506820F4605040EAC1005060704729B191
:1027A0007E4A527A02437D4B5A7204E07B4A527A47
:1027B00082437A4B5A7270477B49D8310860704720
:1027C00001460020754A506820F44040084350609C
:1027D00070470021714A20321170704A82F820102F
:1027E000012802D004280AD104E001216B4A2032DA
:1027F000117005E00521694A2032117000E000BF28
:1028000000BF70476949086070476449096A01431D
:10281000624A11627047654944390860704730B5B3
:1028200000210022002400235C4D6D6805F00C019E
:1028300021B1042905D0082923D105E05C4D0560AC
:1028400022E05B4D05601FE0544D6D6805F4701289
:10285000524D6D6805F48034022505EB92421CB997
:10286000544D554305600BE04C4D6D6805F4003543
:102870001DB1504D5543056002E04D4D5543056077
:1028800002E04B4D056000BF00BF444D6D6805F090
:10289000F0010909484D6B5C0568DD4045603F4D1E
:1028A0006D6805F4E061090A434D6B5C4568DD40E5
:1028B00085603A4D6D6805F46051C90A3E4D6B5C08
:1028C0004568DD40C560354D6D6805F44041890BB4
:1028D0003A4D6B5CC568B5FBF3F5056130BD29B1B8
:1028E0002E4A526902432D4B5A6104E02B4A526929
:1028F00082432A4B5A61704729B1284A92690243A0
:10290000264B9A6104E0254A92698243234B9A61DF
:10291000704729B1214AD2690243204BDA6104E0B1
:102920001E4AD26982431D4BDA61704729B11B4AA6
:10293000D2680243194BDA6004E0184AD268824335
:10294000164BDA60704729B1144A12690243134BDF
:102950001A6104E0114A12698243104B1A617047F0
:1029600012494039086070470F49C86470470B49E5
:10297000C87170470948406A40F080700749486252
:10298000704701460020054A92680A400AB10120BA
:1029900000E0002070470149887270470010024033
:1029A0000000FFF8FFFFF6FE0000424280044242B2
:1029B00000127A0000093D007C0800208C080020ED
:1029C00010B50446FB48844209D101218803FFF772
:1029D000ADFF00214FF48040FFF7A8FF32E0F6483A
:1029E000844209D101214804FFF7ADFF00214FF4D3
:1029F0000030FFF7A8FF25E0F048844209D101210B
:102A00008804FFF7A0FF00214FF48020FFF79BFF11
:102A100018E0EB48844209D10121C804FFF793FF75
:102A200000214FF40020FFF78EFF0BE0E5488442C1
:102A300008D101210805FFF786FF00214FF480101F
:102A4000FFF781FF10BD2DE9F04786B005460E4621
:102A50000024A24600BFA1460027B08900B100BFF4
:102A60002F462C8A4CF6FF700440F08804432C82D9
:102A7000AC894EF6F3100440B0883189084371895F
:102A800008430443AC81AC8A4FF6FF400440B08950
:102A90000443AC8201A8FFF7C2FEC648874202D1B8
:102AA000DDF810A001E0DDF80CA0A88900F40040DA
:102AB00040B10AEBCA0000EB0A1031684900B0FBD4
:102AC000F1F807E00AEBCA0000EB0A103168890050
:102AD000B0FBF1F86420B8FBF0F004012009642198
:102AE00001FB1089A88900F4004040B1322000EBBE
:102AF000C900B0FBF1F000F00700044308E0322009
:102B000000EB09106421B0FBF1F000F00F0004436A
:102B10002C8106B0BDE8F0874FF41651016000210A
:102B20008180C18001810C21418100218181704718
:102B300010B502460020108A4FF2FF0318400B88A0
:102B40004C8823438C882343CC882343184310822A
:102B500010BD0021018041808180C180704721B17A
:102B6000828942F40052828104E082894DF6FF732B
:102B70001A4082817047F0B50346002400260025E4
:102B8000002040F66A17B94200D100BF1846C1F3D1
:102B9000421401F01F06012707FA06F5012C01D1A6
:102BA0000C3004E0022C01D1103000E014301AB1D6
:102BB00007682F43076002E00768AF430760F0BD76
:102BC0001AB1838A0B43838202E0838A8B43838218
:102BD0007047028A4FF6F0731A400282028A0A4353
:102BE0000282704782894FF2FF731A408281828984
:102BF0000A438281704721B1828942F002028281B8
:102C000004E082894FF6FD731A4082817047028A80
:102C10004FF6DF731A400282028A0A43028270472B
:102C200021B1028A42F48042028204E0028A4BF619
:102C3000FF731A4002827047C1F308028280704716
:102C400001468888C0F308007047818941F001017E
:102C500081817047028BD2B20283028B42EA012249
:102C600002837047028B02F47F420283028B0A4385
:102C70000283704721B1828A42F02002828204E0FE
:102C8000828A4FF6DF731A408282704721B1828AAE
:102C900042F01002828204E0828A4FF6EF731A40FB
:102CA0008282704721B1828A42F00802828204E067
:102CB000828A4FF6F7731A408282704721B1828967
:102CC00042F40042828103E08289C2F30E028281D3
:102CD000704721B1828A42F40062828204E0828AD3
:102CE0004FF2FF731A4082827047828A4FF6FB735D
:102CF0001A408282828A0A438282704721B1828A84
:102D000042F00202828204E0828A4FF6FD731A408A
:102D10008282704702460020B1F5007F00D100BFDB
:102D200013880B400BB1012000E00020704701F434
:102D30000072B2F5007F00D100BFCA430280704725
:102D400070B50246002400230025002040F66A16D4
:102D5000B14200D100BFC1F3421501F01F030126AB
:102D600006FA03F3012D02D19689334006E0022DC5
:102D700002D1168A334001E0968A33400C120126B4
:102D800006FA04F41688344013B10CB1012000E0B7
:102D9000002070BD10B50022002340F66A14A14245
:102DA00000D100BF0A1201249440A3B2DC43048086
:102DB00010BD0000003801400044004000480040C1
:102DC000004C00400050004031490143314A11603D
:102DD000704770B5002100230F22C47804B32D4C36
:102DE000246804F4E064C4F5E064210AC1F104033A
:102DF000CA40447804FA03F184781440214309015D
:102E0000254C0678A155047804F01F050124AC4038
:102E100005786D11AD0005F1E025C5F8004109E028
:102E2000047804F01F050124AC401C4D067876118F
:102E300045F8264070BD1A4A0A400243154B1B1F35
:102E40001A60704739B1134A121D12680243114BC0
:102E50001B1D1A6006E00F4A121D126882430D4BBB
:102E60001B1D1A607047042808D14FF0E021096942
:102E700041F004014FF0E022116107E04FF0E02142
:102E8000096921F004014FF0E02211617047000050
:102E90000000FA050CED00E000E400E080E100E055
:102EA00080FFFF1F10B50446F748844209D1012175
:102EB0004805FFF748FD00214FF40010FFF743FDE0
:102EC00008E001218805FFF73EFD00214FF4800056
:102ED000FFF739FD10BD2DE9F04385B004460D46DE
:102EE0000026B1460427DFF8A483A6884FF6C070F9
:102EF00006406846FFF793FCDDF80880E448B8FB1D
:102F0000F0F01FFA80F946EA0906A68020884FF6FD
:102F1000FE71084020800026DE49286888420CD8CF
:102F200028684000B8FBF0F087B2042F00DA0427CD
:102F30003E4309F10100208427E0E8884BF6FF7149
:102F4000884206D1286800EB4000B8FBF0F087B259
:102F500009E0286800EBC00101EB0010B8FBF0F0BD
:102F600087B247F48047C7F30B0008B947F0010761
:102F700047F4004006434FF4967009FB00F04FF40D
:102F80007A7190FBF1F0401C2084A683208840F0E9
:102F90000100208026884FF6F5300640A888698910
:102FA000084306432680A88929890843208105B063
:102FB000BDE8F08341F288310160002181804BF649
:102FC000FF71C1800021018141814FF480418181E5
:102FD000704721B1028842F00102028004E00288B9
:102FE0004FF6FE731A400280704721B1828842F486
:102FF0000062828004E082884FF2FF731A40828070
:10300000704721B1828842F48052828004E0828835
:103010004EF6FF731A408280704721B1028842F455
:103020008072028004E002884FF6FF631A4002803B
:10303000704721B1028842F40072028004E00288E5
:103040004FF6FF531A400280704721B1028842F4C4
:103050008062028004E002884FF6FF331A4002804B
:1030600070470A46002181894FF60173194002F02A
:10307000FE0319438181704721B1828942F0010228
:10308000828104E082894FF6FE731A408281704784
:1030900021B1028842F04002028004E002884FF62B
:1030A000BF731A40028070471AB183880B43838034
:1030B00002E083888B43838070470182704701461A
:1030C000088AC0B2704712B141F0010102E04FF628
:1030D000FE7319400182704708B502460020009037
:1030E00000920098084400900098008808BD21B123
:1030F000028842F40042028003E00288C2F30E021A
:1031000002807047B1F5006F04D1028842F400627A
:10311000028004E002884FF2FF731A400280704779
:10312000B1F5005F04D1028842F40052028004E04D
:1031300002884DF6FF731A400280704721B1028861
:1031400042F48052028004E002884EF6FF731A4077
:1031500002807047B1F5006F04D1028842F400622A
:10316000028004E002884FF2FF731A400280704729
:1031700021B1028842F02002028004E002884FF66A
:10318000DF731A40028070470146088B00127047B7
:1031900021B1028842F01002028004E002884FF65A
:1031A000EF731A400280704721B9028842F0800212
:1031B000028004E002884FF67F731A400280704755
:1031C000B1F5804F05D0828B4BF6FF731A40828396
:1031D00003E0828B42F480428283704770B50246DE
:1031E0000024002500230020958A138B1B0445EA48
:1031F000030626F07F4404EA01068E4201D1012035
:1032000000E0002070BD10B5014600200023002220
:103210008B8A0A8B120443EA020424F07F4010BD1B
:103220000CB50246002000230193009300920B0F7F
:10323000019321F07F41019B1BB1009B143300934C
:1032400003E0090C009B18330093009B1B680B40A4
:103250000BB1012000E000200CBD002221F07F42D4
:10326000D3438382704730B5024600200023948800
:1032700001F0E06504EA154321F07F41948A0C4097
:1032800054B14BB1012008E00054004000127A0014
:1032900040420F00A0860100002030BD002221F036
:1032A0007F42D3438382704710B50446FA48844274
:1032B00008D101214015FFF739FB00216015FFF708
:1032C00035FB17E0F548844208D101210015FFF7CE
:1032D0002DFB00212015FFF729FB0BE0F04884426D
:1032E00008D10121C803FFF721FB00214FF4004062
:1032F000FFF71CFB10BD30B50246002000235068CC
:10330000E84C20400D790C6844EA052420435060C5
:103310009068E54C2040D1E902542C434D7944EAB1
:10332000450420439060D06A20F470000C7C641E39
:10333000E4B2234340EA0350D06230BD0021016073
:10334000017141718160C16001210174704721B137
:10335000826842F00102826003E0826822F001028A
:103360008260704721B1826842F48072826003E01B
:10337000826822F480728260704710B50023CBB25D
:103380001AB144681C43446002E044689C434460B2
:1033900010BD816841F0080181607047014600203E
:1033A0008A6802F008020AB1012000E0002070479C
:1033B000816841F0040181607047014600208A68FD
:1033C00002F004020AB1012000E00020704721B1A0
:1033D000826842F4A002826003E0826822F4A002C4
:1033E00082607047014600208A6802F480020AB1B8
:1033F000012000E00020704710B50A46002100239C
:10340000416821F46041531E41EA4331416010BDDF
:1034100021B1426842F40062426003E0426822F453
:10342000006242607047F0B504460D46002000215E
:10343000092D11DDE068A5F10A0606EB460707260F
:1034400006FA07F18843A5F10A0606EB460603FAD9
:1034500006F10843E0600CE0206905EB450707260C
:1034600006FA07F1884305EB450603FA06F108431F
:103470002061072A0FDA606B561E06EB86071F26AF
:1034800006FA07F18843561E06EB860605FA06F192
:103490000843606322E00D2A0FDA206BD61F06EB8B
:1034A00086071F2606FA07F18843D61F06EB860615
:1034B00005FA06F10843206310E0E06AA2F10D0668
:1034C00006EB86071F2606FA07F18843A2F10D06D0
:1034D00006EB860605FA06F10843E062F0BD21B16D
:1034E000826842F48012826003E0826822F48012D3
:1034F000826070470146C86C80B2704766484C30A5
:103500000068704721B1426842F48062426003E083
:10351000426822F480624260704721B1426842F4FE
:103520008052426003E0426822F480524260704759
:103530000A460021816821F4E0411143816070470F
:1035400021B1826842F40042826003E0826822F482
:1035500000428260704721B1826842F402128260A8
:1035600003E0826822F40212826070470146002064
:103570008A6802F400120AB1012000E000207047BE
:10358000F0B504461546002000220026092911DD69
:10359000E068A1F10A0707EB470C072707FA0CF2CE
:1035A0009043A1F10A0707EB470703FA07F210431C
:1035B000E0600CE0206901EB410C072707FA0CF2F0
:1035C000904301EB410703FA07F210432061A06B1F
:1035D000C0F30156EF1C06F1010CA7EB0C0707EB3B
:1035E000870C1F2707FA0CF29043EF1C06F1010C21
:1035F000A7EB0C0707EB870701FA07F21043A0635C
:10360000F0BD10B50A4600210023816B21F4401162
:10361000531E41EA0351816310BD08B50023009396
:103620000090009B0B440093009B1A6008BD08B5F6
:10363000024600200090009201F12800009B1844EF
:1036400000900098006880B208BD0A4600214168D9
:10365000164B1940114341607047416282627047C6
:103660000A460021416821F01F0111434160704763
:1036700040B109490831096841F40001064A08329D
:10368000116007E004490831096821F40001024A89
:1036900008321160704700000024014000280140FA
:1036A000003C0140FFFEF0FFFDF7F1FFFFFD3FFF93
:1036B0000246002013680B400BB1012000E00020FF
:1036C0007047CA430260704770B50246002000236D
:1036D00000240B125568CEB205EA060415681D4099
:1036E00015B10CB1012000E0002070BD00220A12CB
:1036F000D343036070470000002044490860091D5F
:103700000860091D0860091D086041483F491431DF
:103710000860704700213D498279002A3AD00A4664
:10372000126803689A430B461A600A1D1268036800
:103730009A430B1D1A60027911440A6803681A4300
:103740000A60324A0832126803689A432F4B0833E2
:103750001A601A1D126803689A432C4B0C331A60C6
:103760004279102A0ED11A1F126803681A43274B98
:1037700008331A601A1D126803681A43234B0C336E
:103780001A600DE02149427911440A6803681A431E
:103790000A6005E0027911440A6803689A430A60E6
:1037A00070470021016001710C214171002181717C
:1037B00070471649103109680143144A10321160EC
:1037C000704701460020114A143212680A400AB1BB
:1037D000012000E0002070470C4914310860704758
:1037E000014600200022094B1B6803EA0102074B37
:1037F00014331B680B4013B10AB1012000E0002014
:10380000704702491431086070470000000401400D
:10381000FFFF0F0010B50446FE48844208D1012185
:10382000C014FFF783F80021E014FFF77FF8C4E02D
:10383000B4F1804F08D101210846FFF784F8002138
:103840000120FFF780F8B8E0F348844208D1012155
:103850000220FFF778F800210220FFF774F8ACE0AF
:10386000EE48844208D101210420FFF76CF80021C2
:103870000420FFF768F8A0E0E948844208D101215C
:103880000820FFF760F800210820FFF75CF894E0BB
:10389000E448844208D101211020FFF754F80021A8
:1038A0001020FFF750F888E0DF48844208D101215A
:1038B0002020FFF748F800212020FFF744F87CE0A3
:1038C000DA48844208D101214014FFF72FF8002183
:1038D0006014FFF72BF870E0D548844209D101212C
:1038E000C804FFF723F800214FF40020FFF71EF86B
:1038F00063E0D048844209D101210805FFF716F89A
:1039000000214FF48010FFF711F856E0CA488442B6
:1039100009D101214805FFF709F800214FF40010F3
:10392000FFF704F849E0C548844208D1012140204E
:10393000FFF709F800214020FFF705F83DE0C048F7
:10394000844208D101218020FEF7FDFF0021802064
:10395000FEF7F9FF31E0BB48844208D10121801510
:10396000FEF7F1FF0021A015FEF7EDFF25E0B648B8
:10397000844209D101210804FEF7D8FF00214FF449
:103980008030FEF7D3FF18E0B048844209D101210E
:103990004804FEF7CBFF00214FF40030FEF7C6FFCE
:1039A0000BE0AB48844208D101218804FEF7BEFF3A
:1039B00000214FF48020FEF7B9FF10BD00220288DD
:1039C000944B98420ED0994B98420BD0B0F1804F57
:1039D00008D0914B984205D0904B984202D0904B22
:1039E000984204D14FF68F731A404B881A438D4B7F
:1039F000984207D08C4B984204D04FF6FF431A40B0
:103A0000CB881A4302808B8883850B880385814B82
:103A100098420BD0854B984208D08B4B984205D0EA
:103A20008A4B984202D08A4B984201D10B7A038686
:103A300001238382704770B5002400220023058C87
:103A40004FF6FE7635400584028C8388048B4FF652
:103A50008F752C40B51E2C400D882C43751E2A40B6
:103A60000D892A434D882A436A4DA8420BD06F4DD9
:103A7000A84208D0744DA84205D0744DA84202D087
:103A8000734DA84213D14FF6F7752A404D892A434A
:103A90004FF6FB752A408D882A434FF6FF652B4071
:103AA0004FF6FF552B408D892B43CD892B438380C7
:103AB0000483CD888586028470BD70B50024002201
:103AC0000023058C4FF6EF7635400584028C838801
:103AD000048B48F6FF752C404FF6FF452C400D88AF
:103AE0004FF6FF7606EA05252C434FF6DF752A4090
:103AF0000D8906EA05152A434D8806EA05152A436D
:103B0000444DA84202D0494DA8421DD14FF67F75C1
:103B10002A404D894FF6FF7606EA05152A434FF6EF
:103B2000BF752A408D8806EA05152A434FF6FF35F2
:103B30002B404FF2FF752B408D8906EA85052B43FC
:103B4000CD8906EA85052B4383800483CD880587CC
:103B5000028470BD70B5002400220023058C4FF64E
:103B6000FF6635400584028C8388848B4FF68F7501
:103B70002C404FF6FC752C400D882C434FF6FF551A
:103B80002A400D894FF6FF7606EA05252A434D881F
:103B900006EA05252A431F4DA84202D0234DA8421C
:103BA0001DD14FF2FF752A404D894FF6FF7606EA88
:103BB00005252A434FF6FF352A408D8806EA05255C
:103BC0002A434EF6FF752B404DF6FF752B408D892D
:103BD00006EA05152B43CD8906EA05152B4383809C
:103BE0008483CD888587028470BD70B50022002350
:103BF0000024058C4EF6FF7635400584038C8488BE
:103C0000828B48F6FF752A404FF6FF452A400D8803
:103C100020E00000002C01400004004000080040AB
:103C2000000C00400010004000140040003401402F
:103C3000004C014000500140005401400018004079
:103C4000001C0040002000400040014000440140B2
:103C5000004801404FF6FF7606EA05252A434DF657
:103C6000FF752B400D8906EA05352B434D8806EA82
:103C700005352B43FA4DA84202D0FA4DA84208D18F
:103C80004BF6FF752C408D894FF6FF7606EA8515B9
:103C90002C4384808283CD88A0F84050038470BD7B
:103CA000828B4FF2FF331A408283828B4FF6FF7371
:103CB00003EA01231A4382837047F0B50C46154688
:103CC000002200210026078C4EF6FF7C07EA0C0735
:103CD0000784828B018C4FF6FF7707EA043640F6A3
:103CE000FF473A404FF6FF7707EA05273A434FF67A
:103CF000FF7707EA03373A43D94FB8420ED0D94F7E
:103D0000B8420BD0B0F1804F08D0D74FB84205D0A1
:103D1000D64FB84202D0D64FB84206D14DF6FF7703
:103D2000394046F48057394305E047F6FF5739409C
:103D300044F48057394382830184F0BD828B4FF66F
:103D4000F3731A408283828B0A4382837047F0B5F3
:103D50000C461546002200210026078C4FF6FF6C0A
:103D600007EA0C070784828B018C4FF6FF7707EA7E
:103D700004264FF60C773A404FF6FF7707EA031711
:103D80002F433A43B64FB8420ED0B64FB8420BD08D
:103D9000B0F1804F08D0B44FB84205D0B34FB8420D
:103DA00002D0B34FB84206D14FF6FF57394046F420
:103DB0008077394305E04FF2FF57394044F480776C
:103DC000394382830184F0BD028B4FF2FF331A40E6
:103DD0000283028B4FF6FF7303EA01231A43028327
:103DE0007047F0B50C461546002200210026078CCE
:103DF0004FF6EF7C07EA0C070784028B018C4FF625
:103E0000FF7707EA041640F6FF473A404FF6FF7780
:103E100007EA03373A434FF6FF7707EA05273A43A5
:103E20008F4FB8420ED08F4FB8420BD0B0F1804FB9
:103E300008D08D4FB84205D08C4FB84202D08C4F7D
:103E4000B84206D14FF6DF77394046F010073943C4
:103E500005E04FF65F77394044F01007394302839D
:103E60000184F0BD028B4FF6F3731A400283028B7C
:103E70000A4302837047F0B50C4615460022002124
:103E8000068C4FF6FE773E400684028B018C4FF67F
:103E90000C7632407E1C06EA03162E433243704EE7
:103EA000B0420ED06F4EB0420BD0B0F1804F08D070
:103EB0006D4EB04205D06D4EB04202D06C4EB04255
:103EC00006D14FF6FD76314044F00106314305E05E
:103ED0004FF6F576314044F0010631430283018408
:103EE000F0BD70B505460C465D4885420ED05D4874
:103EF00085420BD0B5F1804F08D05B48854205D094
:103F00005A48854202D05A48854200D100E000BF9D
:103F1000208850B92389A28861882846FFF7ABFF23
:103F2000E1882846FFF79EFF25E0208804280AD173
:103F30002389A28861882846FFF753FFE188284635
:103F4000FFF742FF17E0208808280AD12389A288BA
:103F500061882846FFF7FBFEE1882846FFF7EEFE62
:103F600009E02389A28861882846FFF7A6FEE18838
:103F70002846FFF795FE70BD2DE9F04105460C4639
:103F800000260127608808B9022600E00026A088E4
:103F9000012801D1022700E001272088A0B9238948
:103FA000A28861882846FFF766FFE1882846FFF768
:103FB00059FF23893A4631462846FFF712FFE18828
:103FC0002846FFF701FF13E02389A288618828466D
:103FD000FFF707FFE1882846FFF7F6FE23893A46F8
:103FE00031462846FFF747FFE1882846FFF73AFFAA
:103FF000BDE8F0810A884B881A438B881A43CB8826
:104000001A430B891A434B891A438B891A43A0F828
:10401000442070474FF6FF71818000210180C180EC
:104020004180017270470021018041808180C18000
:10403000018141818181C1817047002101804180DE
:10404000012181800021C180018170470021018010
:1040500041808180C1800181418181817047000060
:10406000002C0140003401400004004000080040E2
:10407000000C004021B1028842F00102028004E0FD
:1040800002884FF6FE731A400280704731B1B0F8D3
:10409000442042F40042A0F8442005E0B0F8442057
:1040A000C2F30E02A0F8442070471AB183890B4373
:1040B000838102E083898B438381704781827047CB
:1040C00041EA0203A0F8483070471AB183890B43D4
:1040D000838102E083898B438381704701894FF696
:1040E000F8721140018170470A46002101894FF69C
:1040F0008F73194011430181704730B504460D4656
:1041000029462046FFF7F0FF208940F00700208174
:1041100030BD2DE9F04104460D4616461F46602D80
:1041200006D13B46012231462046FFF75AFE05E004
:104130003B46012231462046FFF79DFE2946204698
:10414000FFF7D2FF208940F007002081BDE8F08111
:1041500030B50C4600210189C9B24FF6FF7505EA5A
:104160000325154325432943018130BD2DE9F04145
:1041700005460E4617469846002443463A463146C1
:104180002846FFF7E5FF2C894FF6F870044044F00D
:1041900007044FF68F70044044F070042C81BDE892
:1041A000F081F0B504460D4616461F463B463246A2
:1041B00029462046FFF7CCFF208940F4804020812B
:1041C000F0BD0185828270470A46002101884FF6C2
:1041D0008F731940114301807047F0B50C461546A6
:1041E0001E460021002200230189028B038C4FF61A
:1041F000F877394021434FF6FC473A4040F2011727
:104200003A434FF6DD773B404FF6FF7707EA061754
:104210002F433B43018102830384F0BD0A46002102
:10422000018B4FF68F7319401143018370470A4683
:104230000021018B48F6FF7319404FF6FF7303EA24
:1042400002231943018370470A460021818B4FF6F0
:104250008F7319401143818370470A460021818B77
:1042600048F6FF7319404FF6FF7303EA0223194320
:104270008183704721B1028842F08002028004E00D
:1042800002884FF67F731A400280704721B18288FE
:1042900042F00402828004E082884FF6FB731A40E9
:1042A0008280704721B1828842F00802828004E057
:1042B00082884FF6F7731A408280704721B1828856
:1042C00042F00102828004E082884FF6FE731A40B9
:1042D000828070470A460021018B4FF6F773194020
:1042E0001143018370470A460021018B4FF2FF738F
:1042F00019404FF6FF7303EA022319430183704705
:104300000A460021818B4FF6F773194011438183D0
:1043100070470A460021818B4FF2FF7319404FF618
:10432000FF7303EA02231943818370470A46002181
:10433000018B4FF6FB7319401143018370470A4606
:104340000021018B4FF6FF3319404FF6FF7303EA4C
:1043500002231943018370470A460021818B4FF6DF
:10436000FB7319401143818370470A460021818BFA
:104370004FF6FF3319404FF6FF7303EA0223194348
:10438000818370470A460021018B4FF67F731940E5
:104390001143018370470A460021018BC1F30E01CE
:1043A0004FF6FF7303EA02231943018370470A465D
:1043B0000021818B4FF67F73194011438183704731
:1043C0000A460021818BC1F30E014FF6FF7303EA09
:1043D00002231943818370470A460021018C4FF65E
:1043E000FD7319401143018470470A460021018C76
:1043F0004FF6F77319401143018470470A460021B4
:10440000018C4FF6DF7319404FF6FF7303EA021376
:104410001943018470470A460021018C4FF67F73CF
:1044200019404FF6FF7303EA0213194301847047E2
:104430000A460021018C4FF6FF5319404FF6FF73D7
:1044400003EA02231943018470470A460021018CC4
:104450004FF2FF7319404FF6FF7303EA022319432B
:10446000018470470A460021018C4DF6FF73194004
:104470004FF6FF7303EA023319430184704730B5E6
:10448000002301248C40A3B2048C9C430484048C3C
:1044900002FA01F5ADB22C43048430BD30B50023DF
:1044A00004248C40A3B2048C9C430484048C02FA40
:1044B00001F5ADB22C43048430BD70B50346002035
:1044C00000241846183001258D40ACB21D8CA54340
:1044D0001D8409B1082909D100EB6100056825F0A8
:1044E000700505600568154305600EE00D1FC5F3F6
:1044F0004E052844056825F4E045056005684FF63B
:10450000FF7606EA02263543056070BD21B10288B8
:1045100042F00202028004E002884FF6FD731A4066
:104520000280704721B1028842F00402028004E058
:1045300002884FF6FB731A400280704721B18288CF
:1045400042F08002828004E082884FF67F731A4036
:104550008280704702884FF6F7731A400280028803
:104560000A430280704782884FF68F731A40828018
:1045700082880A438280704702894FF6F8731A4096
:10458000028102890A430281704702894FF67F73D4
:104590001A40028102890A43028170478184704770
:1045A0008185704781867047018770478187704792
:1045B000A0F84010704702884FF6FF431A4002806F
:1045C00002880A43028070470146888E7047014680
:1045D000088F70470146888F70470146B1F8400048
:1045E00070470146888C70470146088D7047024627
:1045F0000020138A0B400BB1012000E0002070471F
:10460000CA430282704730B50246002000230024CE
:10461000158A05EA0103958905EA010413B10CB175
:10462000012000E0002030BDCA4302827047000034
:1046300010B58021B94801F034FE0020B849088047
:1046400010BDB748008808B901207047B4480088F9
:10465000B4490988884203D10020B1490880F4E7B1
:10466000AF480088AF4908800120EEE72DE9F0410E
:1046700004460D46C826204601F0A3FD87B23A46FF
:104680002146A948FDF7B5FD0FE0FFF7DAFF48B96D
:104690002946A24801F05FFD20B1FFF7C9FF0020C5
:1046A000BDE8F0810A20FDF764FC301EA6F101018F
:1046B000CEB2EAD10120F3E730B589B004460D4609
:1046C000FFF7B6FF2A4699A101A801F0DBFB9BA1E9
:1046D00001A8FFF7CBFF20B92A4621469248FDF7F3
:1046E00088FD09B030BD70B50546002400BFFFF756
:1046F000A8FF80B992A1894801F02DFD044654B16C
:104700003A21204601F00BFD044614B1641C2046FA
:1047100070BD0020FCE70520FDF72BFC281EA5F14D
:1047200001018DB2E3D100BFF2E708B501210420F9
:10473000FEF7E2F810208DF803008002ADF80000CB
:1047400003208DF8020069467F48FDF719FE00221C
:104750004FF480417C48FDF7C4FEFA20FDF709FCC8
:10476000012291037848FDF7BCFE4FF4FA70FDF783
:1047700000FCFFF75DFF022374A201212320FCF758
:10478000F4F8072203212120FCF761F90822032114
:104790003120FCF75CF9092203214120FCF757F98D
:1047A0000A2203215120FCF752F9002069490860D0
:1047B00009E0684801780620FCF7C7F965480068F9
:1047C000401C64490860634800680A28F1DB03E084
:1047D0004FF4FA70FDF7CDFB5FA160A0FFF746FF35
:1047E0000028F5D103E04FF4FA70FDF7C2FB5AA19F
:1047F0005CA0FFF73BFF0028F5D10A20554908606F
:1048000009E0544801780620FCF79FF951480068F8
:10481000401C504908604F4800681428F1DB03E051
:104820004FF4FA70FDF7A5FB4BA152A0FFF71EFF56
:104830000028F5D103E04FF4FA70FDF79AFB51A17F
:1048400052A0FFF713FF0028F5D11420414908605A
:1048500009E0404801780620FCF777F93D480068F8
:10486000401C3C4908603B4800681E28F1DB03E01F
:104870004FF4FA70FDF77DFB4CA14EA0FFF7F6FE5A
:104880000028F5D11E203349086009E0314801783D
:104890000620FCF75AF92F480068401C2D49086093
:1048A0002C4800683328F1DB072203211820FCF78D
:1048B000CEF8082203212820FCF7C9F80922032199
:1048C0003820FCF7C4F80B2203214820FCF7BFF87E
:1048D0000C2203215820FCF7BAF808BD10B540F2AD
:1048E00025511148FEF72CFAB0B10D4800888028F8
:1048F00002D300200A4908800B48001D0088C1B27D
:10490000074802880088401C054B188003488154E2
:1049100020210548FEF70BFA10BD0000D608002044
:1049200090080020920800200044004041542B438E
:10493000495053454E443D25640D0A003E00000099
:104940004950442C000000000010014045535038ED
:1049500032363600940800204F4B000041540D0AB7
:104960000000000041542B43574D4F44453D310D4D
:104970000A00000041542B4357444843503D312C1A
:10498000310D0A00474F54204950000041542B4339
:10499000574A41503D224F50504F222C224D7932E0
:1049A00030303030393131220D0A0000434F4E4E45
:1049B0004543540041542B43495053544152543DB4
:1049C00022544350222C223138332E3233302E34AD
:1049D000302E3339222C363030320D0A00000000E0
:1049E00070B504460E460025206898B90120207352
:1049F000304601F0D7F920602068E0B10020606007
:104A0000A66003E00020216848556D1CA068A842FC
:104A1000F8D810E00220207303E0002021684855F8
:104A20006D1CA068A842F8D800206060A068B04261
:104A300001D20020206070BD10B50446207B012803
:104A400002D1206801F0DDF9002020606060A060E4
:104A5000207310BD0246002301230DE002F07F0009
:104A60000870D2092AB1087840F080000870491C0B
:104A700001E0184670475B1C042BEFDD4FF0FF3060
:104A8000F8E7F0B504460D462646012300201060E5
:104A9000002114E0775C07F07F07106807FB030034
:104AA0001060705C00F0800008B9481CF0BDDB01AC
:104AB000B3F5001F02D36FF00100F7E7491CA942CC
:104AC000E8DB4FF0FF30F1E7F8B50446FF27207828
:104AD0000511012D01DB0E2D01DD3846F8BD032D3A
:104AE00024D1002000906A460421601CFFF7C9FF12
:104AF0002044461C0098022803D3207800F00100CF
:104B000008B1FF20EAE77078317840EA0120801C84
:104B10000099884201D9FF20E0E7F8A1B01C01F01C
:104B20001AFB08B10F2700E0032700E02F463846A4
:104B3000D4E72DE9FF4F83B082468B469146159C02
:104B40000025002002900F270190484601F039FB14
:104B50000FFA80F8B9F1000F03D1012007B0BDE8CA
:104B6000F08F08F10200384487B2109808B145F080
:104B70000205129878B145F00405129801F021FB66
:104B8000C0B20290139801F01CFB01460298001D70
:104B90000844384487B2119820B1012804D0022873
:104BA00008D104E000BF07E045F00C0504E045F043
:104BB000140501E00220D1E700BF149808B145F0C8
:104BC0002405BAF1000F02D0BBF1000F01D1032080
:104BD000C4E745F0C005504601F0F3FA06465846D2
:104BE00001F0EFFA3044001D384487B239462046C0
:104BF000FFF7F6FE206808B90420AFE739462068C1
:104C000001F04FFB10216268501C606020688154E5
:104C1000D4E90023D118781FFFF71CFF00B20190E0
:104C20000198002804DA2046FFF706FF052095E7E3
:104C3000616801980844606000216268501C6060EF
:104C40002068815404216268501C6060206881548F
:104C50004D216268501C6060206881545121626857
:104C6000501C60602068815454216268501C606050
:104C7000206881546268501C60602068815404215F
:104C80006268501C6060206881546168481C6060E4
:104C9000206845540698010A6268501C60602068CC
:104CA00081540698C1B26268501C606020688154CB
:104CB000C8F307216268501C6060206881546268F4
:104CC000501C6060206800F80280D4E90012881847
:104CD0004246494601F02DFA60684044606005F0A4
:104CE0000400B8B30026139808B986A01390129850
:104CF00001F067FA86B2310A6268501C6060206871
:104D000081546268501C606020688654D4E90012A7
:104D100088183246129901F00CFA606830446060DD
:104D2000139801F04EFA86B2310A6268501C606036
:104D3000206881546268501C606020688654D4E901
:104D4000001288183246139901F0F3F96068304474
:104D5000606000BF05F08000C8B1504601F031FA34
:104D600086B2310A6268501C6060206881546268B3
:104D7000501C606020688654D4E9001288183246BE
:104D8000514601F0D6F960683044606000BF05F01C
:104D90004000C8B1584601F014FA86B2310A626880
:104DA000501C6060206881546268501C60602068FC
:104DB0008654D4E9001288183246594601F0B9F9F0
:104DC00060683044606000BF0020C7E610B504464C
:104DD00002212046FFF704FE206808B9012010BD1B
:104DE000E0216268501C6060206881540021626884
:104DF000501C6060206881540020F0E7014648782C
:104E0000022801D001207047887810B188780128E5
:104E100001D1C878F7E7FF20F5E72DE9FF4F83B010
:104E2000834617469946139C0025002600200290D1
:104E300001908046BBF1000F03D1012007B0BDE80F
:104E4000F08F00260AE00498805D232803D00498A0
:104E5000805D2B2801D10220F0E7761C0498805D4C
:104E60000028F0D148F03008119808B148F0010846
:104E700006EB0900851C109820B1012804D00228F7
:104E80000AD105E000BF09E048F00208AD1C05E0CA
:104E900048F00408AD1C01E00320CFE700BF67B372
:104EA0003878022821D14FF0000A00BF50460AF19D
:104EB000010A385C7D28F9D1AAF1030A0AF107003A
:104EC00002900298A9EB000AE81CA0EB0A01204618
:104ED000FFF786FD206808B90420AFE7EA1CA2EBC3
:104EE0000A01206801F0DDF91FE0691D2046FFF787
:104EF00077FD206840B90420A0E70AE024637265CA
:104F00007100000000000000691D206801F0C9F96F
:104F10000BE0691D2046FFF763FD206808B90420F7
:104F20008CE7691D206801F0BCF96168481C60606D
:104F3000206800F80180D4E9000281182846FFF7B4
:104F400089FD01900198002804DA2046FFF774FDDE
:104F5000052073E76168019808446060C6F3072183
:104F60006268501C6060206881546268501C6060F8
:104F700020688654D4E9001288183246049901F05A
:104F8000D8F8606830446060109860B14FEA1B2127
:104F90006268501C6060206881546268501C6060C8
:104FA000206800F802B0C7B1387802280BD1D4E9E4
:104FB000001288183946029A01F02EF961680298A9
:104FC0000844606009E0D4E9001288184A4639466E
:104FD00001F022F960684844606000202EE72DE966
:104FE000FF4107460D4690461E460A9C01200021BF
:104FF000CDE90001EB1C0A46FAA1CDE902040A2022
:10500000FFF70BFF88B96168481C60602068465450
:10501000C5F307216268501C606020688154626893
:10502000501C60602068855403E0012004B0BDE896
:10503000F0810020FAE72DE9F04F85B080460D465B
:105040009146012004900027002600244FF0000A1A
:10505000404601F0B6F800F10D0B584600F0A2FEF4
:1050600007461FB9049805B0BDE8F08F4246DEA19F
:10507000384600F007FF384601F0A3F8C6B2F01D2D
:1050800000EB050AAAEB050000F08CFE044624B9EB
:10509000384600F0B6FE0498E5E7022020700020B4
:1050A0006070A67032463946E01C01F0B5F8290E52
:1050B000F01C2154C5F30741301D2154C5F30721CD
:1050C000701D2154B01D255401200021CDE900019F
:1050D00053462246C3A1CDE902090A20FFF79DFEEF
:1050E00008B900200490384600F08BFE204600F0FE
:1050F00088FE0498B7E72DE9F84380460C4615462C
:105100001E462F2108F1060001F009F8074600208D
:10511000009017B90120BDE8F8837F1C6A4604217E
:1051200008F10100FFF7ADFC252000F03BFE2060F8
:10513000206808B90220EEE72521206801F0B1F8C7
:1051400024223946206801F067F8243700982C386B
:1051500030803188481C00F025FE2860286820B97E
:10516000206800F04EFE0320D5E73288511C2868E5
:1051700001F097F832883946286801F04DF8002090
:10518000C9E72DE9FF5F07460D469046384601F016
:1051900018F886B2284601F014F81FFA80FA4FF08A
:1051A0000009F01D00F0FEFD04461CB9012004B00A
:1051B000BDE8F09FF11D204601F073F88EA0016854
:1051C00021608088A08032463946204600F0B1FF39
:1051D000284600F0F6FF83460120002100915B463F
:1051E0002A46CDE90208019121460A20FFF715FE63
:1051F00010B94FF0000901E04FF00109204600F01E
:1052000000FE4846D3E72DE9FF5F804617469946E2
:105210000E9C0026B246B3460025B8F1000F03D11C
:10522000012004B0BDE8F09F0BE057F8250008B955
:105230000220F6E757F8250000F0C3FF0644681C7B
:10524000C5B24D45F1DB09EB4900801C00EB060AB5
:105250000AF105012046FFF7C3FB206808B90320C7
:10526000DFE782216268501C606020688154D4E9C5
:10527000000281185046FFF7EDFB0FFA80FBBBF1EF
:10528000000F04DA2046FFF7D7FB0420C9E7606867
:10529000584460604FEA18216268501C60602068C2
:1052A00081546268501C6060206800F8028000250C
:1052B00024E057F8250000F084FF0646C6F30721D6
:1052C0006268501C6060206881546268501C606095
:1052D00020688654D4E90023D01857F825103246A8
:1052E00000F027FF6068304460600198C1B26268D6
:1052F000501C606020688154681CC5B24D45D8DBE5
:1053000000208EE70146FF208A78A2B9CA78142AC5
:1053100011D10A7932B1012A05D0022A04D0802A9B
:1053200006D103E000BF00BF002003E0012001E040
:10533000022000BF00BF70472DE9F05F80460F4696
:1053400091461C460026B246B3460025B8F1000F30
:1053500002D10120BDE8F09F0BE057F8250008B905
:105360000220F7E757F8250000F02BFF0644681CE1
:10537000C5B24D45F1DB022000EB490000EB060A07
:105380000AF105012046FFF72BFB206808B903202E
:10539000E0E7A2216268501C606020688154D4E973
:1053A000000281185046FFF755FB0FFA80FBBBF156
:1053B000000F04DA2046FFF73FFB0420CAE76068CD
:1053C000584460604FEA18216268501C6060206891
:1053D00081546268501C6060206800F802800025DB
:1053E0002CE00000246470007B2264735F696422F7
:1053F0003A222573227D000024637273702F00000F
:1054000057F8250000F0DDFE0646C6F30721626866
:10541000501C6060206881546268501C6060206885
:105420008654D4E90023D01857F82510324600F0EE
:1054300080FE606830446060681CC5B24D45DFDBAB
:10544000002087E7014601208A781AB9CA781E2A07
:1054500000D1002070472DE9FC5F81460D461446BF
:105460001E46DDE90C8B99F8000000F00F0A0020C1
:1054700001900AF008000090CAF341008BF8000088
:1054800001AA042109F10100FFF7FBFA4844471C77
:105490000198022802D30AF0010010B1FF20BDE8F4
:1054A000FC9F7878397840EA012020802088801C91
:1054B0000199884201D9FF20F1E7AFF2C051B81C31
:1054C00000F049FE08B10F20E9E79BF8000020B189
:1054D00001283DD0022877D13BE0009808B1FF2099
:1054E000DDE72188481C00F05DFC2860286808B9C9
:1054F000FF20D4E72288511C286800F0D2FE2288C1
:10550000B91C286800F088FE0198801E2188401A86
:10551000A8F80000B8F80010481C00F043FC306008
:10552000306820B9286800F06CFCFF20B7E7B8F8B5
:105530000020511C306800F0B4FEB8F80020B4F828
:1055400000C0BB1C0CEB0301306800F065FE4FE0AF
:1055500000BF2088801C0199884201D9FF209EE766
:105560002088C01C395C2088801C385C41EA0021FE
:105570000E9801800E9808B9FF2090E72188481CFA
:1055800000F010FC2860286808B9FF2087E722880F
:10559000511C286800F085FE2288B91C286800F09C
:1055A0003BFE0198001F2188401AA8F80000B8F8B7
:1055B0000010481C00F0F6FB3060306828B92868FD
:1055C00000F01FFCFF206AE710E0B8F80020511C33
:1055D000306800F066FEB8F80020B4F800C03B1D4B
:1055E0000CEB0301306800F017FE01E0FF2056E7E6
:1055F00000BF2B21284600F092FD20B92321284628
:1056000000F08DFD08B1FF2049E7002047E770B5A5
:1056100005460C4604212046FFF7E2F9206808B948
:10562000012070BD40216268501C60602068815478
:1056300002216268501C60602068815429126268EF
:10564000501C6060206881546268501C6060206853
:1056500085540020E5E701464878022801D0012062
:105660007047887820B9C8780A2801D10020F7E768
:105670000120F5E770B505460C4604212046FFF7EA
:10568000AFF9206808B9012070BD50216268501C34
:1056900060602068815402216268501C606020684C
:1056A000815429126268501C6060206881546268CD
:1056B000501C6060206885540020E5E7014648786A
:1056C000022801D001207047887820B9C8780A28BC
:1056D00001D10020F7E70120F5E770B505460C463B
:1056E00004212046FFF77CF9206808B9012070BD2D
:1056F00062216268501C60602068815402216268E7
:10570000501C60602068815429126268501C6060DF
:10571000206881546268501C6060206885540020B5
:10572000E5E702465078022801D0012070479078C2
:10573000B0EB112F05D1D078CBB2984201D1002027
:10574000F4E70120F2E770B505460C460421204637
:10575000FFF746F9206808B9012070BD7021626822
:10576000501C60602068815402216268501C606097
:105770002068815429126268501C6060206881543E
:105780006268501C6060206885540020E5E701468F
:105790004878022801D001207047887820B9C8785D
:1057A0000A2801D10020F7E70120F5E710B50446EB
:1057B00002212046FFF714F9206808B9012010BD26
:1057C000C0216268501C60602068815400216268BA
:1057D000501C6060206881540020F0E730B58BB029
:1057E00000200790089009900A900125FBF7A2F885
:1057F0000F2202211046FBF72AF9102202211F2056
:10580000FBF725F9112202212F20FBF720F90D22A9
:1058100002213F20FBF71BF90E2202214F20FBF74C
:1058200016F90A2202215F20FBF711F907A80021CF
:1058300002910391CDE9041000912B02DBA20191AA
:10584000DDA1DFA0FFF775F900285CD1089A91B2BD
:105850000798FEF731FFFA20FEF745FF0446002CBB
:105860004DD02046FFF730F9022848D12046FFF7F7
:10587000C5FA06283DD2DFE800F00323282D323791
:10588000D1A1D648FCF7CEFC0025FBF753F80D223A
:1058900004211F20FBF7DBF80E2204212F20FBF749
:1058A000D6F80C2204213F20FBF7D1F81222042164
:1058B0004F20FBF7CCF84FF4FA70FCF75AFB1DE0D1
:1058C000C7A1C648FCF7AEFC18E0CCA1C348FCF762
:1058D000A9FC13E0D2A1C148FCF7A4FC0EE0D8A1BA
:1058E000BE48FCF79FFC09E0DEA1BC48FCF79AFC2F
:1058F00004E0E7A1B948FCF795FC00BF00BF07A88A
:10590000FFF79AF817E0E9A1B448FCF78BFC1A22DC
:1059100004212F20FBF79BF81B2204213F20FBF7DB
:1059200096F81C2206212F20FBF791F81D22062154
:105930003F20FBF78CF828460BB030BD70B588B01F
:1059400004462021684600F0CEFCE1A1204600F08C
:1059500014FC2021684600F0C6FCDE480278DEA177
:10596000684600F08FFA6946204600F049FC202185
:10597000684600F0B8FCD7484278DBA1684600F0E2
:1059800081FA6946204600F03BFC2021684600F081
:10599000AAFCD049486802F04DF905462A460B4654
:1059A000D5A1684600F06EFA6946204600F028FC52
:1059B0002021684600F097FCC6488278D1A168464D
:1059C00000F060FA6946204600F01AFC2021684683
:1059D00000F089FCBF48027ACDA1684600F052FA77
:1059E0006946204600F00CFC2021684600F07BFC54
:1059F000B848427AC8A1684600F044FA6946204691
:105A000000F0FEFB2021684600F06DFCB148827A70
:105A1000C3A1684600F036FA6946204600F0F0FB64
:105A2000204600F0CEFBC0B208B070BD30B5A5B0C6
:105A30000020219022902390249000240025802192
:105A400001A800F050FC01A8FFF778FF0446E4B17C
:105A500021A8052300222146009054A0FFF7BFFA99
:105A600098B908E001A8415D229A501C2290219823
:105A70008154681C05B2A542F4DB229A91B22198A8
:105A8000FEF71AFE21A8FEF7D7FF25B030BD2DE99D
:105A9000F0418CB080460020089009900A900B904D
:105AA0000790069005900026002700240025404618
:105AB000FFF70AF80646042E25D00F2E2CD105AB91
:105AC00007AA06A94046FFF716FB0746D7B9BDF857
:105AD0001400009095A14148DDE90623FCF7A2FBE4
